:020000020000FC
:100000000FE50DBF04E00EBF00E09FEF80E097BB5F
:1000100081BB0E942A000E944B00A0B3A03069F06F
:10002000093009F40FEF0395A0B3A03031F00E941E
:100030004B000E942A000C941000003009F40AE0E2
:100040000A95A0B3A03061F70E944B000E942A00DD
:100050000C941D001FEF003009F411E0013009F489
:100060001FE4023009F412E1033009F416E0043011
:1000700009F41CE4053009F414E2063009F410E236
:10008000073009F41FE0083009F410E0093009F4E2
:100090001CE018BB08956EED6A95603051F056E98A
:1000A0005A955030C9F341E04A954030E9F7403065
:0400B000B9F3089503
:00000001FF
